:100100001201000200000040B404031000000102CC
:020110000001EC
:0A0114000A0600020000004001008E
:1001200009028700010100A0320904000001FF005C
:100130000000070582020002000904000101FF001F
:100140000000070502020002000904000202FF008D
:1001500000000705820200020007050602000200F7
:100160000904000301FF00000007058201001401DB
:100170000904000401FF000000070502010014014A
:100180000904000501FF00000007058201000401C9
:100190000904000602FF00000007058201000401B7
:0701A0000705060100040140
:1001A80009024900010100A0320904000001FF0012
:1001B8000000070582024000010904000101FF0058
:1001C8000000070502024000010904000201FF00C7
:1001D800000007058201FF03010904000301FF0075
:0901E800000007050201FF0301FC
:1001F20004030904100343007900700072006500D3
:10020200730073001403430059002D00530074005F
:0A0212007200650061006D0000003D
:0A0CF30000010202030304040505DA
:1008AE00E4F514F513F512F511C203C200C202C22B
:1008BE0001120E4B7E017F008E238F24752B017546
:1008CE002C14752101752220752901752AA8752D04
:1008DE0001752EF2EE54E070030209FC75150075D9
:1008EE0016808E178F18C3741A9FFF74029ECF2422
:1008FE0002CF3400FEE48F108E0FF50EF50DF50CC1
:10090E00F50BF50AF509AF10AE0FAD0EAC0DAB0C35
:10091E00AA0BA90AA809C3120E14502AE516250C13
:10092E00F582E515350BF58374CDF0AF0CAE0BAD3E
:10093E000AAC09E47B01FAF9F8120E078F0C8E0B44
:10094E008D0A8C0980C0E4F50CF50BF50AF509AF9C
:10095E0010AE0FAD0EAC0DAB0CAA0BA90AA809C3B5
:10096E00120E145037E518250CF582E517350BF5E8
:10097E0083E0FFE516250CF582E515350BF583EFC3
:10098E00F0AF0CAE0BAD0AAC09E47B01FAF9F8122C
:10099E000E078F0C8E0B8D0A8C0980B3851523855F
:1009AE00162474002480FF740134FFFEC3E52C9FCF
:1009BE00F52CE52B9EF52BC3E5269FF526E5259E0A
:1009CE00F525C3E5289FF528E5279EF527C3E522E3
:1009DE009FF522E5219EF521C3E52A9FF52AE529FB
:1009EE009EF529C3E52E9FF52EE52D9EF52DD2E819
:1009FE0043D82090E668E04409F090E65CE0443D80
:100A0E00F0D2AF90E680E020E105D2041210D9902A
:100A1E00E680E054F7F0538EF8C20312123730011D
:100A2E0005120627C2013003291200FD5024C2030D
:100A3E0012118420001690E682E030E704E020E1F7
:100A4E00EF90E682E030E604E020E0E412110812B6
:070A5E000CFD120A6680C7BF
:010A6500226E
:1006270090E6B9E0120E2506F000079901082E039F
:10063700064A0606EA0806E40906D80A06DE0B009B
:1006470000089A12123F40030208A690E6BBE02476
:10065700FE602C14604724FD601614603124067078
:1006670066E52390E6B3F0E52490E6B4F00208A629
:10067700E52B90E6B3F0E52C90E6B4F00208A6E58A
:100687002590E6B3F0E52690E6B4F00208A6E52744
:1006970090E6B3F0E52890E6B4F00208A690E6BA33
:1006A700E0FF121134AA06A9077B01EA494B600D46
:1006B700EE90E6B3F0EF90E6B4F00208A690E6A05D
:1006C700E04401F00208A690E6A0E04401F0020829
:1006D700A612121D0208A612021C0208A612122F49
:1006E7000208A612120B0208A612124140030208C2
:1006F700A690E6B8E0247F602B14603C24026003D8
:1007070002078FA200E433FF25E0FFA202E4334F84
:1007170090E740F0E4A3F090E68AF090E68B74024D
:10072700F00208A6E490E740F0A3F090E68AF09084
:10073700E68B7402F00208A690E6BCE0547EFF7ECA
:1007470000E0D3948040067C007D0180047C007D1E
:1007570000EC4EFEED4F24F3F582740C3EF583E476
:1007670093FF3395E0FEEF24A1FFEE34E68F82F589
:1007770083E0540190E740F0E4A3F090E68AF0901C
:10078700E68B7402F00208A690E6A0E04401F002AE
:1007970008A612124340030208A690E6B8E024FE1A
:1007A700601D240260030208A690E6BAE0B40105C2
:1007B700C2000208A690E6A0E04401F00208A69055
:1007C700E6BAE0705990E6BCE0547EFF7E00E0D3C5
:1007D700948040067C007D0180047C007D00EC4E07
:1007E700FEED4F24F3F582740C3EF583E493FF335B
:1007F70095E0FEEF24A1FFEE34E68F82F583E05407
:10080700FEF090E6BCE05480FF131313541FFFE083
:10081700540F2F90E683F0E04420F00208A690E6FC
:10082700A0E04401F08078121245507390E6B8E0DA
:1008370024FE60202402706790E6BAE0B40104D277
:1008470000805C90E6BAE06402605490E6A0E04461
:1008570001F0804B90E6BCE0547EFF7E00E0D3942D
:100867008040067C007D0180047C007D00EC4EFE0C
:10087700ED4F24F3F582740C3EF583E493FF339533
:10088700E0FEEF24A1FFEE34E68F82F583E044011A
:10089700F0800C121247500790E6A0E04401F09058
:0608A700E6A0E04480F031
:0108AD002228
:030033000200F9CF
:0400F90053D8EF32B7
:10115F00501400C0F9A4B0999282F880988883C681
:10116F00A1868E012F0002340000013700013800E4
:04117F000232000038
:100E4B0090E600E054E74410F000000090E601E06B
:100E5B004440F000000090E610E0547FF0000000EA
:100E6B0090E611E0547FF000000090E613E0547F11
:100E7B00F000000090E614E0547FF000000090E6D4
:100E8B0015E0547FF000000090E61274E0F09080C3
:100E9B0000E0FF909000E0FF90A000E090B000E039
:100EAB00FF90E65CE04402F0E4FFFE74002FF58255
:100EBB0074F03EF583EFF00FBF00010EE4B507EBC6
:100ECB00EEB402E790E6907402F0E490E691F0D273
:010EDB000016
:010EDC0022F3
:100A660090E680E020E703020B3EE52F120E250AF2
:100A76008E000AF9010AAB020ADC030AF9040ADC51
:100A8600050B100600000BA4E5AA30E103020BA437
:100A960090A800E0FF75371090E6907402F0E4909D
:100AA600E691F080E3E5AA20E11590A800E0FF7545
:100AB600371090E6907402F0E490E691F080E6E557
:100AC600AA30E403020BA4909800E0FF753810905A
:100AD600E6997480F022E5AA30E103020BA490A8FF
:100AE60000E0FF75371090E6907404F0E490E6910C
:100AF600F080E3E5AA30E003020BA4909800E0FF43
:100B060075381090E6917480F022E5AA20E11590E0
:100B1600A800E0FF75371090E6907404F0E490E6C4
:100B260091F080E6E5AA20E475909800E0FF75381C
:100B36001090E6997480F022E52F14602414602E3C
:100B460014604624037057E5AA20E15290A800E0FD
:100B5600FF753710E490E690F090E6917440F080CF
:100B6600E6E5AA20E03890E6917480F080F3E5AAE5
:100B760020E12B90A800E0FF75371090E6907403F3
:100B8600F090E69174FFF080E5E5AA20E0109098D9
:0E0B960000E0FF75381090E6917480F080EB5F
:010BA400222E
:0200FD00D3220C
:020CFD00D32200
:02123F00D322B8
:08122F0090E6BAE0F536D32287
:10120B0090E740E536F0E490E68AF090E68B04F048
:02121B00D322DC
:10021C0075190190E6BAE0F52F90E680E020E7032F
:10022C000204E2E52F120E25024D0002A80103156F
:10023C000203930303DA04042B0504720600000680
:10024C000690E61274E0F000000090E610E0547F97
:10025C00F000000090E611E0547FF000000090E602
:10026C0013E0547FF000000090E614E0547FF0009F
:10027C00000090E615E0547FF000000090E6047456
:10028C0080F00000007402F0000000E4F0000000B8
:10029C0090E6837412F07432F002060690E6127443
:1002AC00A0F000000090E610E0547FF000000090F9
:1002BC00E611E0547FF000000090E613E0547FF06C
:1002CC0000000090E614E0547FF000000090E6156A
:1002DC00E0547FF000000090E6047480F000000011
:1002EC007402F0000000E4F000000090E683740259
:1002FC00F07422F090E6917480F0000000F00000A1
:10030C0000F0000000F002060690E61274E0F00027
:10031C00000090E61474A0F000000090E610E05489
:10032C007FF000000090E611E0547FF00000009098
:10033C00E613E0547FF000000090E615E0547FF0E7
:10034C0000000090E6047480F00000007402F000DD
:10035C000000E4F00000007480F00000007406F06F
:10036C00000000E4F000000090E6837412F0743298
:10037C00F07406F07426F090E6997480F00000009A
:10038C00F000000002060690E61274D8F00000009F
:10039C00E490E615F090E614F090E613F090E61178
:1003AC00F090E610F000000090E6047480F000007D
:1003BC00007402F0000000E4F000000090E683748A
:1003CC0012F07432F090E6407483F0020606E4906A
:1003DC00E615F090E614F090E613F090E611F0902C
:1003EC00E610F000000090E6127498F00000009007
:1003FC00E6047480F00000007402F0000000E4F0E9
:10040C0000000090E6837402F07422F090E6917480
:10041C0080F0000000F090E6407483F00206069035
:10042C00E61274D8F0000000E490E615F090E614A3
:10043C00F090E613F090E611F090E610F00000005A
:10044C0090E6047480F00000007402F0000000E4F8
:10045C00F000000090E6837412F07432F090E640E5
:10046C007401F002060690E61274DAF000000090B7
:10047C00E614749AF0000000E490E615F090E61390
:10048C00F090E611F090E610F000000090E6047495
:10049C0080F00000007402F0000000E4F0000000A6
:1004AC007480F00000007406F0000000E4F000001E
:1004BC000090E6837412F07432F090E6407401F010
:1004CC0090E6837406F07426F090E6997480F00040
:1004DC000000F0020606E52F14606E14700302058E
:1004EC00A41470030205DB2403600302060690E6E5
:1004FC001274E0F000000090E610E0547FF0000071
:10050C000090E611E0547FF000000090E613E054F8
:10051C007FF000000090E614E0547FF000000090A3
:10052C00E615E0547FF000000090E6047480F000C3
:10053C0000007402F0000000E4F000000090E6837C
:10054C007412F07432F002060690E61274A0F000F9
:10055C00000090E610E0547FF000000090E611E0FF
:10056C00547FF000000090E613E0547FF000000090
:10057C0090E614E0547FF000000090E615E0547F04
:10058C00F000000090E6917480F0000000F0000094
:10059C0000F0000000F0806290E61274D8F00000C9
:1005AC0000E490E615F090E614F090E613F090E677
:1005BC0011F090E610F000000090E6047480F0005A
:1005CC0000007402F0000000E4F0000000802BE456
:1005DC0090E615F090E614F090E613F090E611F02A
:1005EC0090E610F000000090E6127498F000000005
:1005FC0090E6917480F0000000F0E519601B740027
:10060C00252FF582E43414AB82FA7D017F2112117F
:0A061C00A97F2112103BE4F519D369
:0106260022B1
:10121D0090E740E52FF0E490E68AF090E68B04F03D
:02122D00D322CA
:02124100D322B6
:02124300D322B4
:02124500D322B2
:02124700D322B0
:1011C500C0E0C083C082D2015391EF90E65D740107
:0811D500F0D082D083D0E0329B
:1011F500C0E0C083C0825391EF90E65D7404F0D0E7
:0612050082D083D0E0322C
:0F0F6900C0E0C083C082C0D075D000C004C007F4
:100F78005391EF90E65D7402F00535E53570020592
:100F880034E5345532FCE53555334C600790B000F4
:100F9800E0FF800590B800E0FFD5370590A000E09D
:090FA800FFD53805909000E0FF30
:0D0FB100D007D004D0D0D082D083D0E03261
:060FBE00C0E0C083C08208
:100FC400852925852A26852682852583A37402F012
:100FD400852127852228852882852783A37407F005
:100FE4005391EF90E65D7410F0908000E0F5087581
:050FF40032047533001A
:070FF900D082D083D0E0326A
:1011DD00C0E0C083C082D2035391EF90E65D7408E6
:0811ED00F0D082D083D0E03283
:06008000C0E0C083C08255
:1000860075321075330090E680E030E72E85212525
:10009600852226852682852583A37402F085292755
:1000A600852A28852882852783A37407F090E64051
:1000B6007483F0908800E0F508800C852925852A50
:1000C600268521278522285391EF90E65D7420F03E
:0700D600D082D083D0E0329C
:0100FF0032CE
:010CFF0032C2
:011249003272
:01124A003271
:01124B003270
:01124C00326F
:10100000C0E0C083C082C0D0E52F24FE601924FE5A
:10101000600824FE601124057018E5AA20E01390F2
:10102000E6917480F0800BE5AA20E40690E69974BE
:0B10300080F0D0D0D082D083D0E0321E
:01124D00326E
:01124E00326D
:01124F00326C
:01125000326B
:01125100326A
:011252003269
:011253003268
:011254003267
:011255003266
:011256003265
:011257003264
:011258003263
:011259003262
:01125A003261
:01125B003260
:01125C00325F
:01125D00325E
:01125E00325D
:01125F00325C
:01126000325B
:01126100325A
:011262003259
:011263003258
:011264003257
:011265003256
:011266003255
:011267003254
:011268003253
:011269003252
:1011080090E682E030E004E020E60B90E682E030F2
:10111800E119E030E71590E680E04401F07F147EA5
:0C11280000120CAD90E680E054FEF022B6
:1010D90030040990E680E0440AF0800790E680E059
:1010E9004408F07FDC7E05120CAD90E65D74FFF0DC
:0F10F90090E65FF05391EF90E680E054F7F0221D
:08123700E4F53ED2E9D2AF223A
:10103B00AD0790E678E020E6F9C2E990E678E04467
:10104B0080F0ED25E090E679F090E678E030E0F97D
:10105B0090E678E04440F090E678E020E6F990E600
:08106B0078E030E1D6D2E92261
:1010A700AC0790E678E020E6F9E53E702390E67815
:1010B700E04480F0EC25E090E679F08D39AF03A9A4
:1010C70007753A018A3B893CE4F53D753E01D32219
:0210D700C32232
:10107300AC0790E678E020E6F9E53E702590E67847
:10108300E04480F0EC25E0440190E679F08D39AF3F
:1010930003A907753A018A3B893CE4F53D753E0394
:0410A300D322C3226F
:03004B00020BA500
:100BA500C0E0C083C082C085C084C086758600C091
:100BB500D075D000C000C001C002C003C006C00788
:100BC50090E678E030E206753E06020C8F90E678F6
:100BD500E020E10CE53E64026006753E07020C8FDD
:100BE500E53E24FE605F14603624FE7003020C802F
:100BF50024FC7003020C8C24086003020C8FAB3AB2
:100C0500AA3BA93CAF3D053D8F82758300120DB807
:100C150090E679F0E53D65397070753E05806B901D
:100C2500E679E0AB3AAA3BA93CAE3D8E82758300DE
:100C3500120DE5753E02E5396401704E90E678E0E7
:100C45004420F08045E53924FEB53D0790E678E07F
:100C55004420F0E53914B53D0A90E678E04440F0CB
:100C6500753E0090E679E0AB3AAA3BA93CAE3D8ED5
:100C750082758300120DE5053D800F90E678E0440E
:100C850040F0753E008003753E005391DFD007D0DC
:100C950006D003D002D001D000D0D0D086D084D0E9
:080CA50085D082D083D0E0323B
:02113400A90709
:10113600AE2DAF2E8F828E83A3E064037017AD01B0
:1011460019ED7001228F828E83E07C002FFDEC3E2C
:08115600FEAF0580DFE4FEFF9F
:01115E00226E
:1000DD00121073E53E24FA600E146006240770F3C7
:0C00ED00D322E4F53ED322E4F53ED322FA
:1011A9001210A7E53E24FA600E146006240770F3B6
:0C11B900D322E4F53ED322E4F53ED3221D
:1011840090E682E044C0F090E681F04387010000DD
:041194000000002235
:100CAD008E198F1A90E600E054187012E51A24017F
:100CBD00FFE43519C313F519EF13F51A801590E6F6
:100CCD0000E05418FFBF100BE51A25E0F51AE519E1
:100CDD0033F519E51A151AAE19700215194E60057E
:060CED0012119880EE22B6
:101198007400F58690FDA57C05A3E582458370F96A
:0111A8002224
:03004300020D00AB
:03005300020D009B
:100D00000211C500020F69000211F5000211DD0099
:100D1000020FBE00020080000200FF00020CFF0074
:100D20000212490002124A0002124B0002124C0049
:100D30000210000002124D0002124E0002124F007B
:100D400002125000020CFF00021251000212520067
:100D500002125300021254000212550002125600F1
:100D600002125700020CFF00020CFF00020CFF00F1
:100D7000021258000212590002125A0002125B00BD
:100D800002125C0002125D0002125E0002125F009D
:100D9000021260000212610002126200021263007D
:100DA000021264000212650002126600021267005D
:080DB000021268000212690042
:03000000020EDD10
:0C0EDD00787FE4F6D8FD75813E020F24FA
:100DB800BB010CE58229F582E5833AF583E02250F0
:100DC80006E92582F8E622BBFE06E92582F8E2223A
:0D0DD800E58229F582E5833AF583E4932254
:100DE500F8BB010DE58229F582E5833AF583E8F044
:100DF500225006E92582C8F622BBFE05E92582C8F0
:020E0500F222D7
:0D0E0700EF2BFFEE3AFEED39FDEC38FC223A
:100E1400EB9FF5F0EA9E42F0E99D42F0E89C45F034
:010E240022AB
:100E2500D083D082F8E4937012740193700DA3A35C
:100E350093F8740193F5828883E473740293686070
:060E4500EFA3A3A380DF70
:100EE9000208AEE493A3F8E493A34003F68001F269
:100EF90008DFF48029E493A3F85407240CC8C3330A
:100F0900C4540F4420C8834004F456800146F6DFD8
:100F1900E4800B010204081020408090115FE47EF8
:100F2900019360BCA3FF543F30E509541FFEE493CD
:100F3900A360010ECF54C025E060A840B8E493A394
:100F4900FAE493A3F8E493A3C8C582C8CAC583CABF
:100F5900F0A3C8C582C8CAC583CADFE9DEE780BE77
:01118300006B
:00000001FF
