:0400000002005B326D
:01000B0032C2
:0100130032BA
:03001B00020C389C
:0100230032AA
:01002B0032A2
:01003300329A
:01003B003292
:03004300021800A0
:03004B00020F01A0
:0300530002180090
:0300B400020056F1
:0500560012032480FEEE
:0C00B700AA82AB83AC36EBC313CA13CA99
:0200C300FB0A36
:0A00C500E536C39CFBC39A40F72206
:0700CF00858211858312AA4E
:0600D60011AB127C007565
:0400DC005DFF850F30
:0300E0005E85102A
:0C00E3005F8A828B838CF012161CC3E530
:0400EF000D950FE577
:0600F3000E95105006AA54
:0500F9000DAB0E8004B8
:0400FE00AA0FAB108A
:07010200AC11AD127E007587
:060109005D40755EE77524
:05010F005F008A608B17
:0A011400618C828D838EF002163B91
:05011E00100202800F39
:0A012300AA2E052E90E7C0EAF09026
:05012D00E68F7440F0B4
:0501320010010280062F
:0601370090E68D7401F05A
:04013D001003012288
:05014100100002800324
:0301460002073E6F
:0A01490090E68BE0FA8A0D750E00B7
:09015300901F62E0F50FA3E0F536
:08015C001090E7C01200CF75FE
:0C0164002E0190E7C0E4F090E68BE0FA7A
:0A01700090E68FF020080302022B36
:03017A00752F00DE
:08017D00E5AA30E10302022BA8
:0A01850090E68BE0FA8A0D750E007B
:04018F0085380F851B
:06019300391090F000128B
:0701990000CF7401252CF5D5
:0501A0002CE4352DF5F3
:0401A5002DE52C45D3
:0801A9002D700B7401252AF5ED
:0501B1002AE4352BF5E6
:0101B6002B1D
:0601B700AA0BAB0CC3E52E
:0A01BD00389AE5399B501490E69043
:0A01C700E539F0000000AA387B00C3
:0701D10090E691EAF08015B1
:0A01D800AA0BAB0C90E690EBF000D0
:0B01E2000000AA0B7B0090E691EAF001
:0601ED00E50BC39538F597
:0401F3000BE50C9577
:0601F70039F50CC3E4958C
:0A01FD000B7480850CF063F0809510
:06020700F0500302017D2E
:07020D0030061020070DE58B
:060214000B450C7007D23F
:04021A0007152F0293
:02021E00017D60
:0402200085090B85BC
:030224000A0CC2FF
:040227000702017D4C
:06022B0030093E753000B1
:0C023100E5AA20E33690E68BE0FA8A0D87
:05023D00750E00853A7A
:030242000F853BEA
:080245001090F4001200CFAA92
:09024D0030053090F400EAF09055
:0A025600E694E53BF0000000AA3A30
:0C0260007B0090E695EAF000000080C5ED
:07026C00300A627531003019
:0202730008453C
:0C027500E5AA20E53690E68BE0FA8A0D41
:05028100750E00853C34
:030286000F853DA4
:080289001090F8001200CFAA4A
:0902910031053190F800EAF0900B
:0A029A00E698E53DF0000000AA3CE4
:0C02A4007B0090E699EAF000000080C5A5
:0A02B00090E65EE0FA4440F080178B
:0702BA007533007534007577
:0C02C10035FF90E65F7440F090E65EE0D0
:0402CD00FA54BFF030
:0602D100300B4275320003
:0C02D700E5AA20E73A90E68BE0FA8A0DD9
:0502E300750E00853ED0
:0302E8000F853F40
:0802EB001090FC001200CFAAE4
:0902F30032053290FC00EAF090A3
:0A02FC00E69CE53FF0000000AA3E7A
:0E0306007B0090E69DEAF000000090A100E070
:0203140080C1A6
:0E03160090E6A0E04480F090E68B7401F022A7
:0C0324007A00C20FC2AF90E60B7403F029
:0E03300000000090E6007412F0000000758ED0
:0E033E000000000090E6727403F000000075ED
:0E034C008901000000758850000000C2A9D28F
:0E035A00AB00000090E601E0FB4440F075B3FC
:0D0368000F759009908000E0909000E090EB
:0E037500A100E090B000E075AF07C2F8D2BB67
:0C038300D2E8000000C20D90E65CE0FB38
:0E038F00447FF000000090E6687408F0000063
:0E039D000090E65EE090E65E74FFF000000067
:0E03AB00D2AF00000090E6FBE4F00000007509
:0C03B9004100758200C002120FA6E58210
:0403C500D002600200
:0203C90080FEB4
:0403CB007B007C0037
:0E03CF008B828C83C002C003C00412115F1227
:0B03DD00011ED004D003D002E536B5AD
:0503E800130302048B69
:0503ED00853613E4F564
:0303F20014F515EA
:0A03F500C3E5149406E51564809436
:0603FF0080400302048BA4
:0A040500E5431475F030A42400FF55
:07040F00E4341FF8A914E515
:0C04160015C40354F8C9C403C969C954D3
:0E042200F8C969FDE92FFEED38FD8E828D834D
:0E043000E0FF30E74B74072EF582E43DF583C4
:0A043E00E0FDBD013D74102514F52A
:060448001674E63515F5FF
:07044E0017C3E5149402E559
:0C0455001564809480500FEF30E60B74AB
:07046100012516F516E43534
:0304680017F5176E
:05046B00AD16AE17857F
:0A0470001682851783E0FF63078002
:06047A008D828E83EFF07D
:070480000514E4B5140205A8
:01048700155F
:030488000203F577
:0B048B0074F85536FDEAB50502800C40
:0C04960074F85536FA74102BFBE43CFCA3
:0704A200EB7004EC30E003F5
:0304A9000203CF7C
:0D04AC00EC30E10B90B100E0C293D2900261
:0204B90003CF6F
:0904BB0090B000E0D2930203CFDF
:0404C4009019002269
:0404C8009019122253
:0B04CC00E582FA600D7401B55D04903C
:0304D700191C22CB
:0404DA00901938221B
:0904DE007401B55D04901954226B
:0404E70090197022D6
:0604EB00AA827B007C00E8
:0C04F100C3EB9406EC6480948040012270
:0E04FD008B05ECC454F0CDC4CD6DCD54F0CDC4
:0A050B006DFEED2471FDEE341FFEBD
:0E0515008D828E83E0FF53070FBF013A7404FE
:0E0523002DFFE43EF88F828883A3A37440F07E
:0E053100A3E4F074082DFFE43EF88F82888367
:0E053F00A3A37440F0A3E4F0740C2DFFE43E7F
:0E054D00F88F828883A3A3E4F0A3F00205D305
:0E055B00EA603B74042DFFE43EF88F82888333
:0E056900A3A3E4F0A37402F074082DFFE43E97
:0E057700F88F828883A3A3E4F0A37404F074C9
:0E0585000C2DFFE43EF88F828883A3A3E4F0E0
:06059300A37404F0803A9D
:0E05990074042DFFE43EF88F828883A3A374C0
:0E05A70040F0A3E4F074082DFFE43EF88F82CC
:0E05B5008883A3A37440F0A3E4F0740C2DFD22
:0E05C300E43EFE8D828E83A3A374FFF0A3742A
:0205D10003F035
:0505D3000BBB00010C50
:0305D8000204F129
:0A05DB0085825EE55D75F030A42412
:0A05E50000FBE4341FFC74282BFB1C
:0E05EF00E43CFC90E016E4F0741BC39400FDA5
:0E05FD0074E094E0FE90E002EDF0A3EEF07DDD
:08060B001B7EE07FC1781F7522
:020613005F0086
:0706150074FA255F50012279
:0B061C008B828C83E0F56020E7030276
:020627000729A1
:0E06290090E002E0F9A3E0FA740729F9E43A40
:0E063700FA90E002E9F0A3EAF090E016E0FA93
:0E0645000A90E016EAF08D828E837407F08D25
:0E065300828E83A37405F08F828883E0FAE51F
:070661006030E60343028054
:0E0668008D828E83A3A3EAF08D828E83A3A3DE
:0A067600A3AA6074035AF9F0E55ED0
:0E0680006066C007C0008B828C83A3E0F9A3E4
:0A068E00E0FF896174075FF5625315
:0B0698000203BA0206D000D007801653
:0C06A300D000D007E56003035403C4033B
:0A06AF0054F8F9E4FA4261E94262EE
:0D06B900C007C0008D828E83A3A3A3A3E51C
:0A06C60061F0A3E562F074062DFA5E
:0E06D000E43EF98B828C83A3A3A3A3A3E08A4C
:0A06DE00828983F0D000D007803A33
:0E06E800C007C00074042DFAE43EF98B828C2A
:0E06F60083A3A3A3E0FFA3E0F88A828983EF29
:0E070400F0A3E8F074062DFAE43EFF74062B15
:0E071200F582E43CF583E08A828F83F0D0000C
:02072000D00700
:0707220074072DFDE43EFE0B
:0E072900EB24F8FBEC34FFFCEF24F0FFE83487
:07073700FFF8055F02061543
:0C073E0090E6BCE0FAA3E0EAC454F0240A
:0A074A0071FBE4341FFC7D00EA247B
:0E075400F9500B90E6A0E0FE4481F002090887
:0D07620090E6BAE0FEA3E0EE75F030A424AE
:0A076F0000FEE4341FFFEAC4035447
:0C077900F82EFEE43FFF7800755D40752F
:060785005EE7755F0075E0
:0A078B006008E4F5618E828F838818
:0E079500F0C002C003C004C00512163BD00520
:0E07A300D004D003D00274032BFEE43CFF8D83
:0D07B1000090E747E0F98E828F8388F012F8
:0E07BE001693B9021B74022AF5F005F07401BF
:0207CC008002A9
:0207CE0025E024
:0E07D000D5F0FBF4FE90E65EE0FF5EF08018D0
:0B07DE0074022AF5F005F0740180029F
:0207E90025E009
:0B07EB00D5F0FBFA90E65EE0FE4AF05D
:0E07F60074042BFAE43CFE8D078A828E838FFA
:0E080400F0E4121693740C2BFAE43CFE8D0700
:0E0812008A828E838FF0E412169374082BFAFC
:0D082000E43CFE8D078A828E838FF0E41287
:0E082D00169390E680E0FA30E70C90E741E089
:08083B00F518A3E0F519800A8D
:0A08430090E743E0F518A3E0F51973
:0E084D0090E740E0FFF8530003B80102804638
:05085B00B80202800854
:05086000B803028075E1
:030865000209087D
:0A08680074042BF51AE43CF51B8D17
:080872001C7402251AFEE43596
:0A087A001BFAA81C8E828A8388F006
:07088400E518121693A3E52D
:09088B001912169374805FFA85BE
:060894001A82851B83851A
:07089A001CF01216938067A9
:0A08A100740C2BF51AE43CF51B8DD6
:0808AB001C7402251AF9E43562
:0A08B3001BFAAE1C89828A838EF0C6
:0708BD00E518121693A3E5F4
:0908C4001912169374805FFA8585
:0608CD001A82851B8385E1
:0708D3001CF0121693802EA9
:0E08DA0074082BFBE43CFC74022BFAE43CFE99
:0B08E8008D008A828E8388F0E51812D4
:0608F3001693A3E51912A3
:0D08F90016935307808B828C838DF0EF12D5
:02090600169346
:0E09080090E6A0E04480F090E68B7401F022AF
:0A09160090E6B9E0FABA51028065DC
:05092000BA5202806CD8
:05092500BA5302801C22
:05092A00BA5402800335
:03092F000209AE0C
:0E09320090E6BAE0FAA3E0FB90190AEAF0A3FF
:06094000EBF075820022BD
:0E09460090E680E0FA74805AF5821204EB907D
:0E095400E6B5E0FA54FEF0000000901F70E0DF
:0E096200FA7B0090E68AEBF090E68BEAF07AE2
:09097000707B1F90E6B3EBF07AF6
:0A097900707B1F90E6B4EAF075826F
:02098300002250
:0C098500D20090E68B7401F07582022213
:0A099100200E1AD20E90E6BAE0F52F
:0A099B004AA3E0F54B90E6BCE0F53E
:0909A5004CA3E0F54D758200221F
:0409AE00758201222B
:0A09B20090E6B9E0FABAF002800303
:0309BC00020AAA82
:0E09BF0090E6BCE0FAA3E0FB8A047D00EC2485
:0609CD00FA5003020AAD1E
:0709D300EC2C2C9009DA73F3
:0709DA000209F20209EC0220
:0609E1000A6F020A9702F2
:0509E7000AA8020A103D
:0609EC00C20C758200221E
:0609F200D20CE4F528F52B
:0409F80029F548F5A0
:0409FC0049F546F57E
:040A000047F52AF597
:050A04002BE4F52CF5C8
:070A09002DD20D75820022C1
:0A0A1000AC48E54990E740ECF0AC7B
:090A1A004990E741ECF0AC28E53D
:090A23002990E742ECF0AC2990A7
:090A2C00E743ECF0AC2CE52D9041
:0C0A3500E744ECF0AC2D90E745ECF0AC91
:090A41002AE52B90E746ECF0AC2D
:090A4A002B90E747ECF0AC46E507
:090A53004790E748ECF0AC479035
:0E0A5C00E749ECF090E68AE4F090E68B740A2D
:050A6A00F0758200227E
:0C0A6F0090E6BAE0FCA3E0FD8C09747F67
:050A7B005DF50A85098C
:030A80000B850AD9
:090A83000CC2068B02EA6002D2EB
:010A8C000663
:0A0A8D0090E68B7401F075820222DE
:0C0A970090E6BAE0FAA3E0EAC454F0F5DF
:050AA3004575820022F0
:020AA8008003C9
:030AAA0002091628
:040AAD00758201222B
:0E0AB100AA82AB83A3A3E0FC8A828B83A3A35B
:0E0ABF00A3A3E0FDA3E0FE8D0774075EF8EE32
:0E0ACD00C423541F7E00045403FD8A828B83D1
:0E0ADB00A3A3A3E05403C454F0FA43028074B2
:0E0AE900805CC3134202C3E49F740298E4339E
:060AF700FB60034302084E
:0E0AFD00740F5CFE90E68374104EF090E6835A
:090B0B0074304EF0BE01028018A6
:050B1400BE0202803268
:060B1900BE0403020BDF25
:060B1F00BE0603020C0AF1
:060B2500BE0803020BB440
:010B2B0022A7
:0B0B2C00EC30E70790E611EAF0800BC8
:0B0B370090E610EAF090E68D7401F0EB
:090B4200901F62EFF0A3E8F0221D
:0E0B4B007E04EB601690E615E0FB30E7027EBC
:010B59000398
:0C0B5A0090E614E0FB30E7227E02801ED3
:0C0B660090E613E0FB30E7047E028012F2
:0E0B720090E615E0FB30E70A90E614E0FB3059
:040B8000E7027E0307
:0E0B840090E612EE4AF000000090E640EDF020
:0B0B9200000000EC30E704D2088012E5
:040B9D00C2087B000F
:0E0BA100C3EB9E500990E6497482F00B80F27F
:050BAF008F3888392297
:0E0BB40090E615EAF000000090E643EDF0EC4C
:070BC20030E704D20B8011A3
:0C0BC900C20B90E6497488F00000009018
:050BD500E6497488F000
:050BDA008F3E883F2260
:0E0BDF0090E613EAF000000090E641EDF0EC25
:070BED0030E704D20980117A
:0C0BF400C20990E6497484F000000090F3
:050C0000E6497484F0D8
:050C05008F3A883B223C
:0E0C0A0090E61474024AF000000090E642EDFD
:090C1800F0EC30E704D20A80126E
:040C2100C20A7A0089
:030C2500BA020010
:0B0C2800500990E6497486F00A80F243
:050C33008F3C883D220A
:0316D6008C19006C
:0316D90090190065
:0316DC009E190054
:0E16DF006101012200000040000000400000F8
:0E16ED0000000001002200000040000000404C
:0E16FB000000000000020427000001000200B1
:0E17090001000400010004040523000001009B
:0E17170002000100020001000206022700008D
:0E17250001000200010004000100040803237B
:0D17330000000100020001000200010002A0
:0A0C3800C0E0C082C0830536E53637
:0B0C420030E708909000E0C2918006AF
:060C4D00909100E0D2913D
:0A0C5300300C16E53630E611209053
:090C5D0008D290908100E08006AD
:060C6600C290908000E046
:070C6C00D083D082D0E032FA
:0C0C7300C0E0C082C083D2055391EF9016
:0C0C7F00E65D7401F0D083D082D0E0323A
:0E0C8B00C0E0C082C083C0D075D0005391EF8E
:080C9900300D1C74012548F523
:050CA10048E43549F5AF
:040CA60049E548458F
:080CAA0049700B74012528F5C7
:050CB20028E43529F5DE
:010CB7002913
:0E0CB80090E65D7402F0D0D0D083D082D0E000
:010CC60032FB
:0E0CC700C0E0C082C0835391EF90E65D7404DC
:080CD500F0D083D082D0E032A0
:0E0CDD00C0E0C082C0835391EF90E65D7408C2
:080CEB00F0D083D082D0E0328A
:0E0CF300C0E0C082C0835391EF90E65D7410A4
:080D0100F0D083D082D0E03273
:0E0D0900C0E0C082C0835391EF90E65D74207D
:080D1700F0D083D082D0E0325D
:0E0D1F00C0E0C082C0835391EF90E65D744047
:080D2D00F0D083D082D0E03247
:0E0D3500C0E0C082C0835391EF90E65F74016E
:0A0D4300F0D204D083D082D0E03259
:0E0D4D00C0E0C082C0835391EF90E65F740255
:0A0D5B00F0D203D083D082D0E03242
:0C0D6500C0E0C082C083D2025391EF9026
:0C0D7100E65F7404F0D083D082D0E03242
:0C0D7D00C0E0C082C083D2015391EF900F
:0C0D8900E65F7408F0D083D082D0E03226
:0E0D9500C0E0C0F0C082C083C002C003C0D066
:0C0DA30075D0005391EF200803020E4CA5
:080DAF00E5AA30E103020EA7E2
:080DB700E4F546F5477401253F
:050DBF002CF52CE435C9
:040DC4002DF52DE5F7
:080DC8002C452D700B74012570
:050DD0002AF52AE435BC
:030DD5002BF52BD0
:060DD800AA0BAB0CC3E501
:0A0DDE00389AE5399B501490E69016
:0A0DE800E539F0000000AA387B0096
:070DF20090E691EAF0801584
:0A0DF900AA0BAB0C90E690EBF000A3
:0B0E03000000AA0B7B0090E691EAF0D3
:060E0E00E50BC39538F569
:040E14000BE50C9549
:060E180039F50CC3E4955E
:0A0E1E000B7480850CF063F08095E2
:060E2800F05003020DAFC3
:070E2E0030061020070DE55E
:060E35000B450C7007D212
:040E3B0007152F0266
:020E3F000DAFF5
:040E410085090B858F
:030E45000A0CC2D2
:040E480007020DAFE1
:0E0E4C00E5AA20E05690E745E0FA90F005E0B8
:070E5A00FBEAB50302800B67
:080E610074012546F546E43555
:030E690047F54703
:0E0E6C0090E663E0FA30E40C90E66574FFF067
:060E7A0090E6637410F025
:080E80007401252CF52CE4356A
:040E88002DF52DE532
:080E8C002C452D700B740125AB
:050E94002AF52AE435F7
:030E99002BF52B0B
:0B0E9C0090E6497482F000000080A581
:0E0EA70090E65F7410F0D0D0D003D002D0835C
:070EB500D082D0F0D0E03242
:0E0EBC00C0E0C082C0835391EF90E65F7420C7
:080ECA00F0D083D082D0E032A9
:0E0ED200C0E0C082C0835391EF90E65F744091
:080EE000F0D083D082D0E03293
:0E0EE800C0E0C082C0835391EF90E65F74803B
:080EF600F0D083D082D0E0327D
:010EFE0032C1
:010EFF0032C0
:010F000032BE
:09180000020C7300020C8B0002C3
:081809000CC700020CDD000217
:081811000CF300020D090002B6
:081819000D1F000218B80002C7
:081821000D3500020D4D00021F
:081829000D6500020D7D0002B7
:081831000D9500020EBC00023F
:081839000ED200020EE80002CD
:081841000F00000218B80002BC
:0818490018B8000218B80002F3
:081851000EFE00020EFF000272
:0818590018B8000218B80002E3
:0818610018B8000218B80002DB
:0818690018B8000218B80002D3
:0818710018B8000218B80002CB
:0818790018B8000218B80002C3
:0818810018B8000218B80002BB
:0818890018B8000218B80002B3
:0818910018B8000218B80002AB
:0818990018B8000218B80002A3
:0818A10018B8000218B800029B
:0818A90018B8000218B8000293
:0818B10018B8000218B800028B
:0218B90018B85D
:0E19000012010002FFFFFF40030400F8200068
:04190E0001020002D0
:0A1912000A060002FFFFFF4002007A
:0E191C0009021B0001010180320904000000D5
:0D192A00FFFFFF000904000104FFFFFF00A4
:0E19380009021B0001020280320904000000B7
:0D194600FFFFFF000904000104FFFFFF0088
:0E19540009071B00010101A032090400000078
:0D196200FFFFFF000904000104FFFFFF006C
:0E19700009071B00010202A03209040000005A
:0D197E00FFFFFF000904000104FFFFFF0050
:04198C000403090443
:0E1990000E0356004D007700610072006500E6
:0E199E00160353006D006F006B0065007200B1
:0819AC00200046005800320043
:040F01005391DF32F7
:0E0F050090E610E4F090E611F090E612F09005
:0E0F1300E613F090E614E4F090E615F000000E
:0E0F21000090E6047480F000000090E6047476
:0E0F2F0002F000000090E6047404F0000000E0
:0E0F3D0090E6047406F000000090E6047408CC
:0D0F4B00F000000090E604E4F000000090CB
:060F5800E65F74FCF022CC
:060F5E00AA82AB837C00B7
:0C0F6400C3EC954050388A828B83E0FD7E
:050F7000BD0702801026
:0C0F75008A828B83A3E0FDBD050280048E
:040F81007582012252
:0E0F85008A828B83C002C003C004120AB1D05E
:0E0F930004D003D00274072AFAE43BFB0C8062
:010FA100C28D
:040FA2007582002232
:0D0FA600AA8290E680E0FB74805BF5827506
:040FB3004E02854322
:0C0FB7004FC00212104DAB82AC838B05C2
:0E0FC3008C06C003C004C005C006120F05D086
:0E0FD10006D005D004D003D002901F607440FB
:0D0FDF00F0E4A3F074042BFBE43CFC7F0065
:0A0FEC008B828C83E0F8C39F405312
:0C0FF6008D828E83A3E0F8B80402800D09
:0D1002008D828E83E0F82DFDE43EFE80E738
:0E100F008D828E83A3A3E0F8B502258D828E1C
:0C101D0083A3A3A3E0F8B5411974092DCA
:0E102900F8E43EF98D828E83A3A3A3A3E0F525
:081037004088828983020F5EEC
:0A103F0074092DFDE43EFE0F80A3AE
:041049007582012289
:06E1F000322E322E310038
:08104D00AA82854F5DC002126A
:0910550004CCAB82AC838B5D8CF2
:0A105E005E755F008B828C83A3A3F4
:0A106800E0F560A3E0F56190E00000
:0C10720075F00012163BD00290E001E582
:0C107E004EF08A82C0021204EBD002E5A2
:07108A004F14F55D8A82128C
:0610910005DB90E00022E7
:0710970085824EE55104F5CE
:05109E004F8550821295
:0E10A300104DAA82AB8390E6B3EBF090E6B45A
:0310B100EAF02240
:0910B400AA82AB83100E02800633
:0510BD00D2108A528BE5
:0110C20053DA
:0A10C30030105BEAC39552FCEB9578
:0A10CD0053FDAE4B7F00C3EE9CEF15
:0810D7009D5047C210D2118A9E
:0A10DF00528B5390E680E0440AF0C3
:0A10E9007403554CFCE54D7D00BC7E
:0710F3000105BD00028010A1
:0810FA00BC0205BD00028012DA
:08110200BC031CBD00198012A2
:0A110A0090E6FBE0FC6402F0800DAB
:0811140090E6FB7402F0800577
:05111C0090E6FBE4F089
:0A11210030113AEAC39552FAEB953B
:05112B0053FBAC4AE596
:0C1130004BE4EC2C25E0FD7C00C3EC9AA5
:09113C00ED9B501EC210C211907F
:0B114500E680E0FA54F7F0300F0F9046
:0E1150001F66E02401F090E65CE0FA4401F036
:01115E00226E
:07115F001210B4100501227B
:0E11660090E6B5E0FA4401F090E6B9E0FA2414
:06117400F4500302160016
:07117A00EA2A2A901181739B
:071181000213E20215430214
:0611880016000214C10272
:06118E001600021600022B
:0611940011A60211A502E4
:06119A0013CE02139F02B8
:0511A00013700213842E
:0111A5002227
:0E11A60090E6BAE0FAA3E0FBFCBC0102801A5E
:0611B400BC020302125709
:0611BA00BC0303021289D0
:0511C000BC0602807C6A
:0611C500BC070302126EDC
:0311CB00021368A4
:0811CE001204C48582548583DC
:0811D60055740C2554FEE435AC
:0C11DE0055FF8E828F83E0F8A3E0F953E8
:0E11EA00000E8E828F83E8F0A3E9F090E6807D
:0E11F800E0F820E7158E828F83E0F8A3E0F97F
:0C1206004300018E828F83E8F0A3E9F022
:0C1212008E828F83E0F8A3E0F9AC457DEC
:0E121E0000EC4200ED42018E828F83E8F0A3C7
:0A122C00E9F0AC54AD5590E6B3EDC7
:0B123600F07D0090E6B4ECF00216140E
:0E1241001204C8AC82AD8390E6B3EDF07D00E0
:08124F0090E6B4ECF002161465
:0C12570090E680E0FC74805CF5508A0496
:091263008C5175820212109702F1
:02126C00161456
:0A126E0090E680E05480FCB401001B
:0A127800E433F5508A048C517582AE
:07128200021210970216147E
:091289008A567B00E55670030251
:02129200133413
:09129400901F67E0F557A3E0F597
:0A129D0058A3E0F55990E6BCE0FF0D
:0A12A700A3E0F874022557F55AE49D
:0512B1003558F55B85D6
:0612B600595C79007A0189
:0712BC0085578285588385E8
:0C12C30059F01216ACC313FCC3EA9C5097
:0A12CF002AEA1425E0255AFCE43554
:0A12D9005BFDAE5C8C828D838EF00D
:0E12E3001216ACFCA31216ACFDEFB50406E823
:0512F100B505028004B8
:0412F600090A80C29F
:0C12FA008903E55624FD402DE9702AE927
:0A13060075F009A42467FAE4341F0F
:0C131000FCE55675F003A42AF582E43CCD
:0E131C00F583E0FAA3E0FCA3E0FDBA000BBCF1
:05132A000008BD0005F4
:05132F007556017B0072
:0A133400EB75F009A42467FAE43415
:0A133E001FFBE55675F003A42AF525
:0E13480082E43BF583E0FAA3E0FBA3E0FC8A1D
:0E135600058B0690E6B3EEF07B0090E6B4EA5D
:04136400F002161469
:0813680090E6A0E04481F022B0
:0C13700090E740E544F090E68AE4F0903D
:08137C00E68B7401F002161467
:0C13840090E6BAE0FAA3E08A4490E6BCD0
:0A139000E0FAA3E08A8285444112CE
:05139A000FA60216146D
:0E139F00901F64E0901F6404F090E6BAE0FA3C
:0A13AD00A3E07B008A43300F069096
:0513B7001F667480F0C8
:0C13BC00754101758200120FA6E58270D9
:0413C80003021614F2
:0213CC00809A05
:0C13CE0090E740E543F090E68AE4F090E0
:0813DA00E68B7401F002161409
:0A13E20090E6B8E0FABA8002800E2F
:0613EC00BA81030214ABFC
:0513F200BA820280191F
:0313F700021614C7
:0E13FA0090E740E4F090E741F090E68AF09032
:08140800E68B7402F0021614D9
:0E14100090E6BCE0FAA3E0FB8A047D005304E2
:06141E007FBC01028017F3
:05142400BC020280364D
:05142900BC040280403C
:05142E00BC0602804A2B
:05143300BC080280541A
:0314380002136834
:0E143B007B00EA30E70F90E6A2E0FA53028150
:0714490090E740EAF0804942
:0E14500090E6A1E0FA53028190E740EAF080B6
:01145E003A53
:0E145F0090E6A3E0FA53028190E740EAF080A5
:01146D002B53
:0E146E0090E6A4E0FA53028190E740EAF08095
:01147C001C53
:0E147D0090E6A5E0FA53028190E740EAF08085
:01148B000D53
:0D148C0090E6A6E0FA53028190E740EAF0F6
:0E14990090E741E4F090E68AF090E68B740252
:0414A700F002161425
:0E14AB0090E740E4F090E741F090E68AF09080
:0814B900E68B7402F002161428
:0D14C10090E6BAE0FAA3E07B00EA600302C7
:0214CE001368A1
:0E14D00090E6BCE0FAA3E0FB8A047D00530422
:0614DE007FBC0102801733
:0514E400BC0202802E95
:0514E900BC0402803488
:0514EE00BC0602803A7B
:0514F300BC080280406E
:0314F80002136874
:0E14FB007B00EA30E70B90E6A2E0FA4401F035
:03150900021614B3
:0B150C0090E6A1E0FA4401F002161482
:0B15170090E6A3E0FA4401F002161475
:0B15220090E6A4E0FA4401F002161469
:0B152D0090E6A5E0FA4401F00216145D
:0B15380090E6A6E0FA4401F002161451
:0D15430090E6BAE0FAA3E07B00EA60030244
:0215500013681E
:071552007546FFE4F547E5D3
:0A155900484549703590E6BCE0FA01
:0E156300A3E0FB8A047D00EC30E7178A047DCC
:0E1571000053040F90E68374104CF090E68354
:06157F0074204CF0800E08
:0E1585007B0053020F90E683EAF074204AF0D8
:0E15930090E6BCE0FAA3E0FB8A047D0053045E
:0615A1007FBC010280176F
:0515A700BC0202802CD3
:0515AC00BC04028031C7
:0515B100BC06028036BB
:0515B600BC0802803BAF
:0315BB00021368B0
:0E15BE007B00EA30E70A90E6A2E0FA54FEF065
:0215CC00804657
:0A15CE0090E6A1E0FA54FEF0803C24
:0A15D80090E6A3E0FA54FEF0803222
:0A15E20090E6A4E0FA54FEF0802821
:0A15EC0090E6A5E0FA54FEF0801E20
:0A15F60090E6A6E0FA54FEF080141F
:0E1600001209B2AA82BA010890E6A0E0448165
:02160E00F022C8
:04161000BA020122F7
:0816140090E6A0E04480F02202
:0A16CC0000010202030304040505F7
:06008A00E478FFF6D8FD4A
:0A161C00AC82AD83AE5EAF5FBE008E
:0516260004EF600C1F41
:03162B000FE55D6B
:08162E00121693A3DEFADFF8A7
:051636008C828D83226F
:0A163B00AA82AB83ACF08A628B63D5
:051645008C64A85DA902
:04164A005EAD5F88AA
:04164E006589668DB7
:0416520067A860A97C
:011656006132
:091657008805890618B8FF011985
:0A166000ED4E6025856582856683E6
:0A166A008567F01216ACFDA385821F
:0A167400658583668A828B838CF003
:0B167E00ED121693A3AA82AB8380CE6E
:071689008562828563838501
:0316900064F022E1
:08006800796AE94400601B7A8B
:05007000019016D67896
:030075006775921A
:0A0078001FE493F2A308B80002058C
:0800820092D9F4DAF27592FF45
:0E16930020F71030F6118883A88220F507F6A4
:0516A100A88375830021
:0116A6002221
:0316A700F280F7D7
:0216AA00F0222C
:080090007800E84400600A79E1
:030098000075925E
:06009B001FE4F309D8FC8C
:0800A1007867E84400600C7967
:0B00A90001901F00E4F0A3D8FCD9FA7E
:03005B0075816745
:0A005E001216C8E582600302005686
:0E16AC0020F71430F6148883A88220F507E694
:0616BA00A88375830022E5
:0316C000E280F7CE
:0316C300E493228B
:0216C600E02220
:0416C8007582002205
:00000001FF
