:0400000002004B327D
:01000B0032C2
:0100130032BA
:01001B0032B2
:0100230032AA
:01002B0032A2
:01003300329A
:01003B003292
:030043000206B7FB
:0400A400750AF17573
:0300A8000B0875CD
:0400AB000C80750D43
:0300AF00F4750ED7
:0500B20008750F8075C8
:0300B700100E75B3
:0300BA00110975B4
:0600BD001280E4F515F5C8
:0500C3001675174075E1
:0500C800189CC200C2FB
:0400CD0001C20290DA
:0C00D1003D007412F0903D017401F090AD
:0E00DD003D02E4F0A37402F0903D04E4F090C4
:0800EB003D05F0903D06F09088
:0E00F3003D077440F0903D08740FF0A3740EAA
:0E010100F0903D0A7417F0A3E4F0903D0CF06E
:0E010F00A37401F0903D0E7401F0903D0F744A
:0E011D0002F0903D10E4F0903D117401F0905E
:0C012B003D20740AF0903D217406F09015
:0E0137003D22E4F0A37402F0903D24E4F09029
:080145003D25F0903D26F090ED
:0C014D003D277440F0903D287401F090B4
:0C0159003D307409F0903D317402F090CC
:0E0165003D327420F0A3E4F0903D347401F0BC
:0C017300903D357401F0903D36E4F090B2
:0C017F003D3774A0F0903D38741EF090E5
:0C018B003D397409F0903D3A7404F09086
:090197003D3BE4F0903D3CF0908A
:0C01A0003D3D7402F0903D3E74FFF09075
:0C01AC003D3F74FFF0903D4074FFF09068
:0B01B8003D41E4F0903D427407F090E0
:0C01C3003D437405F0903D447486F090BC
:0E01CF003D457402F0903D46E4F0A37402F04A
:0C01DD00903D48E4F0903D497407F0901C
:0C01E9003D4A7405F0903D4B7402F0900C
:0E01F5003D4C7402F0903D4DE4F0A37402F016
:05020300903D4FE4F006
:03020800020046AB
:0500460012089380FE8A
:0A020B00AA82AB83ACF07D007E00F8
:0E0215008A828B838CF01208C7FFA31208C7E1
:0E022300F8A31208C7F9BF0008B80005B9001B
:0302310002800E3A
:0E02340074032AFAE43BFB0DBD00D60E80D306
:050242008D828E832275
:0D02470090E6B8E0FA530260BA00028003AE
:030254000206A7F8
:0C02570090E6B9E0FA24F4500302069D82
:07026300EA2A2A90026A73E7
:07026A000204AA02054C0288
:06027100069D02060302D7
:06027700069D02069D0237
:06027D00028E02069D0244
:06028300049602048D0246
:05028900043C02046AC0
:0A028E0090E6BBE0FABA0102801806
:05029800BA02028030F3
:06029D00BA030302035343
:0502A300BA06028016FE
:0502A800BA07028063AB
:0302AD0002043117
:0E02B00090E6B3743DF090E6B4E4F00206AFC1
:0D02BE0090E6B3743DF090E6B47420F002B9
:0202CB0006AF7C
:0E02CD00903D317402F090E680E0FA30E714C4
:0E02DB00903D46E4F0A37402F0903D4DE4F037
:0602E900A37402F0801274
:0E02EF00903D467440F0A3E4F0903D4D744005
:0402FD00F0A3E4F096
:0D03010090E6B3743DF090E6B47430F00265
:02030E0006AF38
:0E031000903D317407F090E680E0FA30E7147B
:0E031E00903D467440F0A3E4F0903D4D7440D5
:06032C00F0A3E4F08012D2
:0E033200903D46E4F0A37402F0903D4DE4F0DF
:04034000A37402F0B0
:0D03440090E6B3743DF090E6B47430F00222
:0203510006AFF5
:0E03530090E6BAE0FA90000A75F040C002127F
:0E036100020BAB82AC83D0027D00C3EA9BEDA1
:0E036F0064808CF063F08095F0400B90E6A067
:08037D00E0FA4401F00206AFB2
:05038500E4F513F5147E
:0A038A00C3E513941FE5146480948A
:0C03940080507990E6BAE075F003A424D4
:0C03A0000AF8860408860508860618186E
:0A03AC00E5132CFCE5143DFD8C82E6
:0C03B6008D838EF01208C76051E51325FE
:0E03C200E0FC2442FDE434E7FE90E6BAE0756C
:0C03D000F003A4240AF88607088602083F
:0A03DC0086031818E5132FFFE5143F
:0E03E6003AFA8F828A838BF01208C7FF8D824D
:0E03F4008E83F074032C2440F582E434E7F588
:0A04020083E4F00513E4B5130205CE
:01040C0014DB
:03040D0002038A5D
:0C041000E51325E0FA0A0A90E740EAF044
:0E041C0090E7417403F00090E68AE4F000904F
:07042A00E68BEAF00206AFC9
:0B04310090E6A0E0FA4401F00206AFE4
:0E043C0090E6BCE0FA7B00C3EA9401EB64801A
:07044A00948040030206AF9D
:0C045100EA2409F8860490E740ECF090E3
:0D045D00E68AE4F090E68B7401F00206AF31
:0E046A0090E6BCE0FCFA7B00C3EA9401EB6470
:0804780080948040030206AFEE
:0B048000EA2409F890E6BAE0FAF60260
:02048B0006AFBA
:09048D0090E6BAE0F5080206AFA2
:0C04960090E740E508F090E68AE4F09062
:0804A200E68B7401F00206AFC5
:0A04AA0090E6B8E0FABA8002800D77
:0504B400BA8102802D59
:0504B900BA8202803E42
:0304BE00020541F3
:0A04C100A201E43325E0FAA202E4F0
:0E04CB0033FB420290E740EAF090E741E4F094
:0D04D90090E68AF090E68B7402F00206AF08
:0E04E60090E740E4F090E741F090E68AF09055
:0804F400E68B7402F00206AF72
:0E04FC0090E6BCE0FA53027E90E6BCE0FBC343
:0E050A0074809BE4334A9008E793FA3395E03F
:0E051800FB74A12AFA74E63BFB8A828B83E017
:0E052600FA53020190E740EAF090E741E4F05A
:0D05340090E68AF090E68B7402F00206AFAC
:0B05410090E6A0E0FA4401F00206AFD3
:0C054C0090E6B8E0FA6008BA0202801BDA
:030558000206AFE9
:0B055B0090E6BAE0FABA0105C2010206
:0205660006AFDE
:0B05680090E6A0E0FA4401F00206AFAC
:0905730090E6BAE060030205F80D
:0E057C0090E6BCE0FA53027E90E6BCE0FBC3C2
:0E058A0074809BE4334A9008E793FA3395E0BF
:0E059800FB74A12AFA74E63BFB90E6BCE0FC83
:0E05A60053047E90E6BCE0FDC374809DE433F8
:0E05B4004C9008E793FC3395E0FD74A12CFCFD
:0E05C20074E63DFD8C828D83E0FC5304FE8ABE
:0E05D000828B83ECF090E6BCE05480C4235490
:0E05DE001FFA90E6BCE0FB740F5B90E6832AE8
:0C05EC00F090E683E0FA4420F00206AF35
:0B05F80090E6A0E0FA4401F00206AF1C
:0C06030090E6B8E0FA6008BA0202802914
:03060F000206934D
:0C06120090E6BAE0FABA0108300005D208
:04061E00010206AF20
:0B06220090E6BAE0FABA02030206AF4D
:0B062D0090E6A0E0FA4401F00206AFE6
:0E06380090E6BCE0FA53027E90E6BCE0FBC305
:0E06460074809BE4334A9008E793FA3395E002
:0E065400FB74A12AFA74E63BFB90E6BCE0FCC6
:0E06620053047E90E6BCE0FDC374809DE4333B
:0E0670004C9008E793FC3395E0FD74A12CFC40
:0E067E0074E63DFD8C828D83E0FC4304018A0E
:07068C00828B83ECF0801C5F
:0A06930090E6A0E0FA4401F08012A6
:0A069D0090E6A0E0FA4401F08008A6
:0806A70090E6A0E0FA4401F026
:0806AF0090E6A0E04480F02277
:0C06B700C021C0E0C0F0C082C083C002BF
:0E06C300C003C004C005C006C007C000C001CF
:0E06D100C0D075D0005391EF90E65D7401F03B
:0E06DF00120247D0D0D001D000D007D006D0F4
:0E06ED0005D004D003D002D083D082D0F0D04C
:0406FB00E0D02132F8
:0E06FF0090E60174C0F00090E60B7403F0006A
:0E070D0090E610E4F090E611F090E613F09004
:0E071B00E615F090E61474E0F090E61274A07B
:0E072900F090E6047480F00090E6047482F014
:0E0737000090E6047484F00090E6047486F0EE
:0E0745000090E6047488F00090E6047480F0E2
:0E0753000090E604E4F00090E6497482F000A5
:0E07610090E6497482F00090E6497482F00040
:0E076F0090E6487486F00090E6487486F0002C
:0E077D0090E6487486F00090E618E4F00090D4
:0E078B00E61AE4F00090E6B57401F075A8805F
:0A07990075E80190E65C7401F0229F
:0B07A3005388CF0090E698E516F0AAFE
:0A07AE001590E699EAF0E4F515F560
:0207B800162207
:0907BA00AA82AB1574F82516FCA7
:0E07C30090E6A5E0FD20E3F88B828C83EAF03F
:0707D1000515E4B515020552
:0107D800160A
:0907D90074FE251650031207A35B
:0A07E200E51545166019E58820E4CE
:0A07EC001474FFC39517FA74FF950B
:0B07F60018FB8B8C7B008A8A43881064
:0108010022D4
:0E08020090E690E0FB7A0090E691E07D0042E7
:0C08100002ED42037C007D007E007FF0C2
:0E081C00C3EC9AED64808BF063F08095F05091
:0A082A00608E828F83E0F8B8610051
:0E0834004027E82485402274E028F582C002A7
:0E084200C003C004C005C006C0071207BAD02C
:0D08500007D006D005D004D003D0028022CE
:0E085D008E828F83E0F582C002C003C004C00B
:0E086B0005C006C0071207BAD007D006D00598
:06087900D004D003D00200
:05087F000CBC00010D9E
:070884000EBE00940F8091ED
:08088B000090E6497482F0229E
:0E08930090E680E04408F01206FF90E680E058
:0E08A1004402F0E0FA54F7F0538EF775890127
:0308AF005388CF9C
:0B08B20090E6A3E0FA20E20312080227
:0A08BD00E58830E5F01207A380EB98
:0A08E70000010202030304040505EA
:0308F100454E0071
:0E08F4005769657365724C6162732026206639
:0C090200726565736F66742E6F7267007B
:0E090E00465832206361736520636F6E766514
:05091C00727465720019
:06007A00E478FFF6D8FD5A
:080058007900E94400601B7A05
:05006000009009217869
:030065000075A083
:0A00680000E493F2A308B8000205BB
:08007200A0D9F4DAF275A0FF39
:080080007800E84400600A79F1
:030088000075A060
:06008B0000E4F309D8FCBB
:080091007800E84400600C79DE
:0B00990000900000E4F0A3D8FCD9FAAE
:03004B007581219B
:0A004E001208E3E582600302004699
:0E08C70020F71430F6148883A88220F507E687
:0608D500A88375830022D8
:0308DB00E280F7C1
:0308DE00E493227E
:0208E100E02213
:0408E30075820022F8
:00000001FF
